S015000070726F696563745F66696E616C2E73726563B0
S113000029C0000039C0000037C0000035C000001E
S113001033C0000031C000002FC000000C94C20C9B
S11300202BC0000029C000000C94A40C25C00000C3
S113003023C000000C94060D1FC000000C94DB0CC0
S11300401BC0000019C0000017C0000015C000004C
S113005013C0000011241FBECFE5D8E0DEBFCDBF22
S113006021E0A0E6B0E001C01D92AC35B207E1F793
S11300700E94980D0C942B0EC3CF10924001109245
S113008052011092550181E080934B0180934A0103
S11300908AE090E0909344018093430188EC90E0DF
S11300A0909354018093530180EC81BB8FE382BB16
S11300B01ABA8FEF8BBB0E94D10CC8D00E94970C48
S11300C00C94B30C089580914001813009F0ADC0C7
S11300D080914A01813081F46091530170915401FF
S11300E080914301909144010E946B0C811102C0E4
S11300F0979803C0979A01C0979A89B390E00090AB
S1130100550102C0959587950A94E2F79C012170E8
S1130110332780FD17C0809164009091650001969B
S1130120909365008093640021E0209363008838F5
S11301309341B9F581E080934501109265001092D6
S113014064002FC080916300813081F410924501D6
S113015080916400909165009093470180934601DB
S113016010926500109264001092630021303105F2
S1130170C1F48091610090916200019690936200B5
S11301808093610021E0209360008838934109F056
S11301904AC081E080933F01109262001092610096
S11301A042C0809160008130F1F510923F0180914E
S11301B04B018130A1F42091460130914701809197
S11301C0610090916200820F931F90934701809386
S11301D046014AE06CE471E00E94F00D1EC04091BB
S11301E04601509147019A01A4E6B0E00E94C40D73
S11301F02091610030916200240F351F40E050E0EF
S11302000E94A20DDA01C9013093490120934801EB
S11302104AE06CE471E00E94F00D109262001092CA
S113022061001092600010924001089588BBA89864
S1130230A998AA9A85E08A95F1F70000AA988FED0B
S11302409EE20197F1F700C0000008958FEF84BB90
S113025087BB2FEF89EF90E0215080409040E1F779
S113026000C0000088E3E2DF8CE0E0DF86E0DEDF50
S113027081E0DCDF80E8DACF089580916A00909114
S11302806B00892B69F480E288BBA89AA998AA9A82
S113029081E090E090936B0080936A0080E0089581
S11302A08091680090916900892BD9F4809166004F
S11302B090916700892B41F481E090E0909367006E
S11302C08093660080E00895AA9881E090E090937E
S11302D0690080936800109267001092660080E0C5
S11302E0089580914501813089F437D4813009F033
S11302F046C0109267001092660010926B00109234
S11303006A001092690010926800089580913F017C
S1130310813081F496D38130A1F510926700109258
S1130320660010926B0010926A001092690010929D
S11303306800089580914B01813089F40E94490B33
S1130340813009F5109267001092660010926B00DC
S113035010926A001092690010926800089559D2B0
S1130360813099F4109267001092660010926B002D
S113037010926A001092690010926800089580E05B
S1130380089580E0089580E0089580E008958091C4
S1130390820090918300892B69F481E388BBA89A39
S11303A0A998AA9A81E090E09093830080938200B8
S11303B080E008958091800090918100892BD9F488
S11303C080917E0090917F00892B41F481E090E040
S11303D090937F0080937E0080E00895AA9881E046
S11303E090E0909381008093800010927F0010929F
S11303F07E0080E0089541DF813069F410927F002F
S113040010927E001092830010928200109281005C
S113041010928000089580E0089580917C0090916E
S11304207D00892B69F482E388BBA89AA998AA9ACB
S113043081E090E090937D0080937C0080E00895BB
S113044080917A0090917B00892BD9F48091780077
S113045090917900892B41F481E090E090937900A8
S11304608093780080E00895AA9881E090E09093CA
S11304707B0080937A00109279001092780080E0DB
S11304800895FBDE813069F41092790010927800AF
S113049010927D0010927C0010927B0010927A00E2
S11304A0089580E008958091760090917700892BDB
S11304B069F483E388BBA89AA998AA9A81E090E09A
S11304C0909377008093760080E008958091740083
S11304D090917500892BD9F48091720090917300EA
S11304E0892B41F481E090E0909373008093720033
S11304F080E00895AA9881E090E09093750080933D
S11305007400109273001092720080E00895B5DEBA
S1130510813069F410927300109272001092770087
S1130520109276001092750010927400089580E085
S113053008958091700090917100892B69F484E38F
S113054088BBA89AA998AA9A81E090E09093710038
S11305508093700080E0089580916E0090916F0008
S1130560892BD9F480916C0090916D00892B41F412
S113057081E090E090936D0080936C0080E008959A
S1130580AA9881E090E090936F0080936E0010929F
S11305906D0010926C0080E008956FDE813069F484
S11305A010926D0010926C00109271001092700005
S11305B010926F0010926E00089580E00895CF931A
S11305C08091880090918900892B69F483E488BB29
S11305D0A89AA998AA9A81E090E0909389008093C0
S11305E08800C0E077C08091860090918700892BB5
S11305F0D9F48091840090918500892B41F481E0A5
S113060090E09093850080938400C0E063C0AA9832
S113061081E090E09093870080938600109285009B
S113062010928400C0E056C0C0915501C130C1F0A1
S113063028F0C23031F1C330A9F145C0A8DE8130C1
S113064009F048C01092850010928400109289002D
S1130650109288001092870010928600C82F3AC02A
S1130660DCDEC82F813089F5109285001092840059
S113067010928900109288001092870010928600D0
S113068029C011DFC82F813011F510928500109216
S113069084001092890010928800109287001092B2
S11306A0860018C046DFC82F813099F41092850067
S11306B01092840010928900109288001092870092
S11306C01092860007C0C0E005C0C0E003C0C0E0CF
S11306D001C0C0E08C2FCF910895809152018130E8
S11306E009F050C080918E0090918F00892B61F4A5
S11306F080E888BBA898A998AA9A81E090E0909392
S11307008F0080938E003CC080918C0090918D006E
S1130710892BC9F480918A0090918B00892B39F43C
S113072081E090E090938B0080938A0029C0AA987E
S113073081E090E090938D0080938C0010928B0068
S113074010928A001DC080918A0090918B008C3297
S113075021E0920730F4019690938B0080938A00F5
S11307600FC02DDF813061F410928B0010928A004B
S113077010928F0010928E0010928D0010928C00B7
S113078010925201089580919A0090919B00892BB8
S113079069F485E588BBA89AA998AA9A81E090E0B3
S11307A090939B0080939A0080E008958091980034
S11307B090919900892BD9F480919600909197009B
S11307C0892B41F481E090E0909397008093960008
S11307D080E00895AA9881E090E090939900809336
S11307E09800109297001092960080E00895AFD67A
S11307F0813069F4109297001092960010929B0039
S113080010929A001092990010929800089580E036
S113081008958091A0009091A100892B69F486E449
S113082088BBA89AA998AA9A81E090E09093A10025
S11308308093A00080E0089580919E0090919F0095
S1130840892BD9F480919C0090919D00892B41F4CF
S113085081E090E090939D0080939C0080E0089557
S1130860AA9881E090E090939F0080939E0010925C
S11308709D0010929C0080E0089585DF813069F42A
S113088010929D0010929C001092A1001092A00062
S113089010929F0010929E00089580E00895809128
S11308A0940090919500892B69F485E288BBA89AFD
S11308B0A998AA9A81E090E090939500809394007F
S11308C080E008958091920090919300892BD9F44F
S11308D08091900090919100892B41F481E090E007
S11308E0909391008093900080E00895AA9881E00D
S11308F090E0909393008093920010929100109254
S1130900900080E008959BD3813069F410929100A7
S113091010929000109295001092940010929300FF
S113092010929200089580E008958091A60090911D
S1130930A700892B69F486E688BBA89AA998AA9A85
S113094081E090E09093A7008093A60080E0089552
S11309508091A4009091A500892BD9F48091A200E4
S11309609091A300892B41F481E090E09093A3003F
S11309708093A20080E00895AA9881E090E090938B
S1130980A5008093A4001092A3001092A20080E01E
S113099008959BD3813069F41092A3001092A200B1
S11309A01092A7001092A6001092A5001092A40025
S11309B0089580E008958091AC009091AD00892B5A
S11309C069F486E688BBA89AA998AA9A81E090E07F
S11309D09093AD008093AC0080E008958091AA00CC
S11309E09091AB00892BD9F48091A8009091A90033
S11309F0892B41F481E090E09093A9008093A800B2
S1130A0080E00895AA9881E090E09093AB008093F1
S1130A10AA001092A9001092A80080E0089585DF32
S1130A20813069F41092A9001092A8001092AD00D0
S1130A301092AC001092AB001092AA00089580E0CE
S1130A4008958091B2009091B300892B69F48FE4EA
S1130A5088BBA89AA998AA9A81E090E09093B300E1
S1130A608093B20080E008958091B0009091B1002D
S1130A70892BD9F48091AE009091AF00892B41F479
S1130A8081E090E09093AF008093AE0080E0089501
S1130A90AA9881E090E09093B1008093B000109206
S1130AA0AF001092AE0080E0089585DF813069F4D4
S1130AB01092AF001092AE001092B3001092B200E8
S1130AC01092B1001092B000089580E008958091D2
S1130AD0B8009091B900892B69F48EE688BBA89A76
S1130AE0A998AA9A81E090E09093B9008093B80005
S1130AF080E008958091B6009091B700892BD9F4D5
S1130B008091B4009091B500892B41F481E090E08C
S1130B109093B5008093B40080E00895AA9881E092
S1130B2090E09093B7008093B6001092B5001092B5
S1130B30B40080E008950FD3813069F41092B500B9
S1130B401092B4001092B9001092B8001092B7003D
S1130B501092B600089580E008958091BE009091AF
S1130B60BF00892B69F48FE488BBA89AA998AA9A34
S1130B7081E090E09093BF008093BE0080E00895F0
S1130B808091BC009091BD00892BD9F48091BA006A
S1130B909091BB00892B41F481E090E09093BB00DD
S1130BA08093BA0080E00895AA9881E090E0909341
S1130BB0BD008093BC001092BB001092BA0080E08C
S1130BC0089585DF813069F41092BB001092BA0059
S1130BD01092BF001092BE001092BD001092BC0093
S1130BE0089580E008958091C4009091C500892BF8
S1130BF069F480E288BBA89AA998AA9A81E090E057
S1130C009093C5008093C40080E008958091C20051
S1130C109091C300892BD9F48091C0009091C100B8
S1130C20892B41F481E090E09093C1008093C0004F
S1130C3080E00895AA9881E090E09093C3008093A7
S1130C40C2001092C1001092C00080E0089510927A
S1130C50C1001092C0001092C5001092C4001092FE
S1130C60C3001092C20081E008958091CA0090915F
S1130C70CB00892B69F480E288BBA89AA998AA9A28
S1130C8081E090E09093CB008093CA0080E00895C7
S1130C908091C8009091C900892BD9F48091C60035
S1130CA09091C700892B41F481E090E09093C700B4
S1130CB08093C60080E00895AA9881E090E0909324
S1130CC0C9008093C8001092C7001092C60080E04B
S1130CD0089589DF813069F41092C7001092C6002C
S1130CE01092CB001092CA001092C9001092C80052
S1130CF0089580E008958091D0009091D100892BCF
S1130D0069F480E288BBA89AA998AA9A81E090E045
S1130D109093D1008093D00080E008958091CE001C
S1130D209091CF00892BD9F48091CC009091CD0083
S1130D30892B41F481E090E09093CD008093CC0026
S1130D4080E00895AA9881E090E09093CF0080938A
S1130D50CE001092CD001092CC0080E0089585DF83
S1130D60813069F41092CD001092CC001092D10021
S1130D701092D0001092CF001092CE00089580E01F
S1130D8008958091D6009091D700892B69F480E270
S1130D9088BBA89AA998AA9A81E090E09093D7007A
S1130DA08093D60080E008958091D4009091D5007E
S1130DB0892BD9F48091D2009091D300892B41F4EE
S1130DC081E090E09093D3008093D20080E0089576
S1130DD0AA9881E090E09093D5008093D40010927B
S1130DE0D3001092D20080E0089585DF813069F449
S1130DF01092D3001092D2001092D7001092D60015
S1130E001092D5001092D400089580E00895809146
S1130E10DC009091DD00892B69F480E288BBA89AFC
S1130E20A998AA9A81E090E09093DD008093DC0079
S1130E3080E008958091DA009091DB00892BD9F449
S1130E408091D8009091D900892B41F481E090E001
S1130E509093D9008093D80080E00895AA9881E007
S1130E6090E09093DB008093DA001092D900109206
S1130E70D80080E0089585DF813069F41092D900AC
S1130E801092D8001092DD001092DC001092DB006A
S1130E901092DA00089580E008958091E200909124
S1130EA0E300892B69F480E288BBA89AA998AA9ADE
S1130EB081E090E09093E3008093E20080E0089565
S1130EC08091E0009091E100892BD9F48091DE00BB
S1130ED09091DF00892B41F481E090E09093DF0052
S1130EE08093DE0080E00895AA9881E090E09093DA
S1130EF0E1008093E0001092DF001092DE0080E0B9
S1130F00089585DF813069F41092DF001092DE00CD
S1130F101092E3001092E2001092E1001092E000BF
S1130F20089580E008958091E8009091E900892B6C
S1130F3069F480E288BBA89AA998AA9A81E090E013
S1130F409093E9008093E80080E008958091E600A2
S1130F509091E700892BD9F48091E4009091E50009
S1130F60892B41F481E090E09093E5008093E400C4
S1130F7080E00895AA9881E090E09093E700809340
S1130F80E6001092E5001092E40080E0089585DF09
S1130F90813069F41092E5001092E4001092E900A7
S1130FA01092E8001092E7001092E600089580E0A5
S1130FB008958091EE009091EF00892B69F480E20E
S1130FC088BBA89AA998AA9A81E090E09093EF0030
S1130FD08093EE0080E008958091EC009091ED0004
S1130FE0892BD9F48091EA009091EB00892B41F48C
S1130FF081E090E09093EB008093EA0080E0089514
S1131000AA9881E090E09093ED008093EC00109218
S1131010EB001092EA0080E0089585DF813069F4E6
S11310201092EB001092EA001092EF001092EE0082
S11310301092ED001092EC00089580E008958091E4
S1131040F4009091F500892B69F480E288BBA89A9A
S1131050A998AA9A81E090E09093F5008093F40017
S113106080E008958091F2009091F300892BD9F4E7
S11310708091F0009091F100892B41F481E090E09F
S11310809093F1008093F00080E00895AA9881E0A5
S113109090E09093F3008093F2001092F10010928C
S11310A0F00080E0089585DF813069F41092F1004A
S11310B01092F0001092F5001092F4001092F300D8
S11310C01092F200089580E008958091FA009091C2
S11310D0FB00892B69F480E288BBA89AA998AA9A94
S11310E081E090E09093FB008093FA0080E0089503
S11310F08091F8009091F900892BD9F48091F60041
S11311009091F700892B41F481E090E09093F700EF
S11311108093F60080E00895AA9881E090E090938F
S1131120F9008093F8001092F7001092F60080E026
S1131130089585DF813069F41092F7001092F6006B
S11311401092FB001092FA001092F9001092F8002D
S1131150089580E008958091000190910101892B08
S113116069F480E288BBA89AA998AA9A81E090E0E1
S1131170909301018093000180E008958091FE0026
S11311809091FF00892BD9F48091FC009091FD008F
S1131190892B41F481E090E09093FD008093FC0062
S11311A080E00895AA9881E090E09093FF008093F6
S11311B0FE001092FD001092FC0080E0089585DF8F
S11311C0813069F41092FD001092FC00109201012C
S11311D0109200011092FF001092FE00089580E02A
S11311E008958091060190910701892B71F48091F3
S11311F04F0188BBA89AA998AA9A81E090E090939D
S113120007018093060180E0089580910401909184
S11312100501892BD9F48091020190910301892B56
S113122041F481E090E0909303018093020180E017
S11312300895AA9881E090E09093050180930401B9
S1131240109203011092020180E0089580914B01F5
S1131250813081F4AAD28130E9F410920301109212
S113126002011092070110920601109205011092DA
S11312700401089514DB813079F410920301109273
S113128002011092070110920601109205011092BA
S11312900401089580E0089580E0089580910C0190
S11312A090910D01892B71F480914E0188BBA89A0D
S11312B0A998AA9A81E090E090930D0180930C0183
S11312C080E0089580910A0190910B01892BD9F453
S11312D08091080190910901892B41F481E090E00B
S11312E0909309018093080180E00895AA9881E011
S11312F090E090930B0180930A01109209011092DF
S1131300080180E0089580914F01882381F069DF0E
S1131310813089F5109209011092080110920D0193
S113132010920C0110920B0110920A010895809101
S11313304B01813081F439D28130F9F410920901E2
S11313401092080110920D0110920C0110920B01E1
S113135010920A010895A3DA813089F410920901E8
S11313601092080110920D0110920C0110920B01C1
S113137010920A01089580E0089580E0089580E0C5
S113138008958091120190911301892B71F4809139
S11313904D0188BBA89AA998AA9A81E090E09093FD
S11313A013018093120180E00895809110019091BF
S11313B01101892BD9F480910E0190910F01892B91
S11313C041F481E090E090930F0180930E0180E05E
S11313D00895AA9881E090E0909311018093100100
S11313E010920F0110920E0180E0089580914E0139
S11313F0882381F053DF813089F510920F01109218
S11314000E01109213011092120110921101109208
S11314101001089580914B01813081F4C6D181304F
S1131420F9F410920F0110920E0110921301109210
S113143012011092110110921001089530DA8130D6
S113144089F410920F0110920E0110921301109260
S113145012011092110110921001089580E0089574
S113146080E0089580E00895809118019091190119
S1131470892B71F480914C0188BBA89AA998AA9AE7
S113148081E090E0909319018093180180E0089521
S11314908091160190911701892BD9F48091140140
S11314A090911501892B41F481E090E0909315010E
S11314B08093140180E00895AA9881E090E09093CD
S11314C0170180931601109215011092140180E007
S11314D0089580914D01882381F053DF813089F58F
S11314E01092150110921401109219011092180112
S11314F01092170110921601089580914B018130CA
S113150081F453D18130F9F4109215011092140131
S113151010921901109218011092170110921601DD
S11315200895BDD9813089F41092150110921401E7
S113153010921901109218011092170110921601BD
S1131540089580E0089580E0089580E008958091F2
S11315502A0190912B01892B69F48AE388BBA89A0C
S1131560A998AA9A81E090E090932B0180932A0194
S113157080E008958091280190912901892BD9F464
S11315808091260190912701892B41F481E090E01C
S1131590909327018093260180E00895AA9881E022
S11315A090E09093290180932801109227011092D2
S11315B0260180E0089580914C01882381F054DF56
S11315C08130E9F4109227011092260110922B0128
S11315D010922A0110922901109228010895BBDD6E
S11315E0813079F4109227011092260110922B0178
S11315F010922A011092290110922801089580E086
S1131600089580E008958091300190913101892BF3
S113161069F484E588BBA89AA998AA9A81E090E025
S1131620909331018093300180E0089580912E01E0
S113163090912F01892BD9F480912C0190912D0147
S1131640892B41F481E090E090932D0180932C014B
S113165080E00895AA9881E090E090932F01809310
S11316602E0110922D0110922C0180E008956FDF5D
S1131670813069F410922D0110922C0110923101E5
S11316801092300110922F0110922E01089580E0E3
S113169008958091360190913701892B69F480E295
S11316A088BBA89AA998AA9A81E090E09093370100
S11316B08093360180E00895809134019091350142
S11316C0892BD9F48091320190913301892B41F413
S11316D081E090E0909333018093320180E008959B
S11316E0AA9881E090E090933501809334011092A0
S11316F033011092320180E0089585DF813069F46E
S11317001092330110923201109237011092360177
S11317101092350110923401089580E0089580916B
S11317201E0190911F01892B69F483E788BBA89A55
S1131730A998AA9A81E090E090931F0180931E01DA
S113174080E0089580911C0190911D01892BD9F4AA
S113175080911A0190911B01892B41F481E090E062
S113176090931B0180931A0180E00895AA9881E068
S113177090E090931D0180931C0110921B01109224
S11317801A0180E0089515DC813069F410921B0180
S113179010921A0110921F0110921E0110921D0145
S11317A010921C01089580E0089580912401909185
S11317B02501892B69F48DE688BBA89AA998AA9A71
S11317C081E090E0909325018093240180E00895C6
S11317D08091220190912301892BD9F480912001D9
S11317E090912101892B41F481E090E090932101B3
S11317F08093200180E00895AA9881E090E090937E
S1131800230180932201109221011092200180E093
S1131810089585DF813069F410922101109220012E
S1131820109225011092240110922301109222019A
S1131830089580E0089580B3869586958F708B30E7
S1131840C1F018F48730F1F008958D3051F08E30E6
S113185009F51092550110924C0181E080934B01DF
S1131860089581E08093550110924C0180934B01BF
S1131870089582E08093550110924C0181E0809399
S11318804B01089583E08093550110924C0181E04F
S113189080934B010895CF9917C0809139018F5FD0
S11318A080933901853081F48091380181110AC017
S11318B080914B0191E0892780934B0110924C0158
S11318C09093380110923901CF9B04C010923801D3
S11318D010923901089520913A0130913B01281763
S11318E0390740F42F5F3F4F30933B0120933A0177
S11318F080E00895AB01415051092417350740F4A5
S11319002F5F3F4F30933B0120933A0181E00895CC
S11319108617970730F010923B0110923A0180E04D
S1131920089510923B0110923A0181E0089583B723
S1131930836083BF89B7826089BF89EF8CBF83B717
S1131940886083BF789408951F920F920FB60F9208
S113195011248F9381E0809340018F910F900FBEEB
S11319600F901F9018958EB583608EBD89B78061E6
S113197089BF85E090E09BBD8ABD8EB588608EBD31
S1131980789408951F920F920FB60F9211248F939B
S113199081E0809352018F910F900FBE0F901F90A2
S11319A018958AB1886D8AB980B5866880BD87E646
S11319B089B910BC08951F920F920FB60F9211248B
S11319C08F93EF93FF93E0913E01F0E0EA5AFE4FCC
S11319D08081882339F08CB980913E018F5F809398
S11319E03E010CC080913C01811106C08DE08CB990
S11319F081E080933C0102C010923E01FF91EF917F
S1131A008F910F900FBE0F901F9018951F920F92F9
S1131A100FB60F9211248F939F93EF93FF939CB172
S1131A209D3059F080913E01E82FF0E0EA5AFE4FD4
S1131A3090838F5F80933E0115C010923C01E0912A
S1131A403E01F0E0EA5AFE4F108281E080933D01AE
S1131A5010923E01809156018CB980913E018F5FB6
S1131A6080933E01FF91EF919F918F910F900FBE54
S1131A700F901F90189580913D01813009F057C057
S1131A80809156018F3689F4809157018E3609F082
S1131A904BC081E080934A0144C08091580186364E
S1131AA009F03FC010924A013CC08435D9F487E55F
S1131AB091E079D090935401809353018A30910539
S1131AC03CF48AE090E0909354018093530129C040
S1131AD08938934134F188E893E1909354018093D9
S1131AE053011FC08634E9F487E591E05CD0992363
S1131AF02CF0909344018093430104C0109244015C
S1131B00109243018091530190915401209143011B
S1131B10309144018217930724F4909344018093F5
S1131B20430110923D0108958636D9F7B6CF089542
S1131B300E943D0080DEAFDE9EDF0E946D030E94A6
S1131B406300F8CFA1E21A2EAA1BBB1BFD010DC036
S1131B50AA1FBB1FEE1FFF1FA217B307E407F50759
S1131B6020F0A21BB30BE40BF50B661F771F881F35
S1131B70991F1A9469F760957095809590959B01CB
S1131B80AC01BD01CF010895A29FB001B39FC00174
S1131B90A39F700D811D1124911DB29F700D811D95
S1131BA01124911D0895FC0188279927E894219117
S1131BB02032E9F3293010F02E30C8F32B3239F0FB
S1131BC02D3231F4689403C015D0820F911D2191F8
S1131BD020532A30C8F31EF4909581959F4F0895A1
S1131BE0BB274A3031F4992322F4BDE290958195C4
S1131BF09F4F09C07AE0979F902D879F802D910D6C
S1131C0011240895BB27FB015527AA27880F991F84
S1131C10AA1FA41710F0A41B83955051B9F7A05D17
S1131C20AA3308F0A95DA193009779F7B111B19394
S1131C301192CB0100C0DC01FC01672F7191772365
S1131C40E1F7329704C07C916D9370836291AE1773
S10D1C50BF07C8F30895F894FFCF0E
S9030000FC
